{
  "contractName": "Collectibles",
  "abi": [
    {
      "constant": true,
      "inputs": [
        {
          "name": "interfaceId",
          "type": "bytes4"
        }
      ],
      "name": "supportsInterface",
      "outputs": [
        {
          "name": "",
          "type": "bool"
        }
      ],
      "payable": false,
      "stateMutability": "view",
      "type": "function"
    },
    {
      "constant": true,
      "inputs": [],
      "name": "name",
      "outputs": [
        {
          "name": "",
          "type": "string"
        }
      ],
      "payable": false,
      "stateMutability": "view",
      "type": "function"
    },
    {
      "constant": true,
      "inputs": [
        {
          "name": "tokenId",
          "type": "uint256"
        }
      ],
      "name": "getApproved",
      "outputs": [
        {
          "name": "",
          "type": "address"
        }
      ],
      "payable": false,
      "stateMutability": "view",
      "type": "function"
    },
    {
      "constant": false,
      "inputs": [
        {
          "name": "to",
          "type": "address"
        },
        {
          "name": "tokenId",
          "type": "uint256"
        }
      ],
      "name": "approve",
      "outputs": [],
      "payable": false,
      "stateMutability": "nonpayable",
      "type": "function"
    },
    {
      "constant": true,
      "inputs": [],
      "name": "totalSupply",
      "outputs": [
        {
          "name": "",
          "type": "uint256"
        }
      ],
      "payable": false,
      "stateMutability": "view",
      "type": "function"
    },
    {
      "constant": false,
      "inputs": [
        {
          "name": "from",
          "type": "address"
        },
        {
          "name": "to",
          "type": "address"
        },
        {
          "name": "tokenId",
          "type": "uint256"
        }
      ],
      "name": "transferFrom",
      "outputs": [],
      "payable": false,
      "stateMutability": "nonpayable",
      "type": "function"
    },
    {
      "constant": true,
      "inputs": [
        {
          "name": "owner",
          "type": "address"
        },
        {
          "name": "index",
          "type": "uint256"
        }
      ],
      "name": "tokenOfOwnerByIndex",
      "outputs": [
        {
          "name": "",
          "type": "uint256"
        }
      ],
      "payable": false,
      "stateMutability": "view",
      "type": "function"
    },
    {
      "constant": false,
      "inputs": [
        {
          "name": "from",
          "type": "address"
        },
        {
          "name": "to",
          "type": "address"
        },
        {
          "name": "tokenId",
          "type": "uint256"
        }
      ],
      "name": "safeTransferFrom",
      "outputs": [],
      "payable": false,
      "stateMutability": "nonpayable",
      "type": "function"
    },
    {
      "constant": true,
      "inputs": [
        {
          "name": "tokenId",
          "type": "uint256"
        }
      ],
      "name": "exists",
      "outputs": [
        {
          "name": "",
          "type": "bool"
        }
      ],
      "payable": false,
      "stateMutability": "view",
      "type": "function"
    },
    {
      "constant": true,
      "inputs": [
        {
          "name": "index",
          "type": "uint256"
        }
      ],
      "name": "tokenByIndex",
      "outputs": [
        {
          "name": "",
          "type": "uint256"
        }
      ],
      "payable": false,
      "stateMutability": "view",
      "type": "function"
    },
    {
      "constant": true,
      "inputs": [
        {
          "name": "tokenId",
          "type": "uint256"
        }
      ],
      "name": "creatorOf",
      "outputs": [
        {
          "name": "",
          "type": "address"
        }
      ],
      "payable": false,
      "stateMutability": "view",
      "type": "function"
    },
    {
      "constant": true,
      "inputs": [
        {
          "name": "tokenId",
          "type": "uint256"
        }
      ],
      "name": "ownerOf",
      "outputs": [
        {
          "name": "",
          "type": "address"
        }
      ],
      "payable": false,
      "stateMutability": "view",
      "type": "function"
    },
    {
      "constant": true,
      "inputs": [
        {
          "name": "owner",
          "type": "address"
        }
      ],
      "name": "balanceOf",
      "outputs": [
        {
          "name": "",
          "type": "uint256"
        }
      ],
      "payable": false,
      "stateMutability": "view",
      "type": "function"
    },
    {
      "constant": true,
      "inputs": [
        {
          "name": "owner",
          "type": "address"
        }
      ],
      "name": "tokensOfOwner",
      "outputs": [
        {
          "name": "",
          "type": "uint256[]"
        }
      ],
      "payable": false,
      "stateMutability": "view",
      "type": "function"
    },
    {
      "constant": true,
      "inputs": [],
      "name": "symbol",
      "outputs": [
        {
          "name": "",
          "type": "string"
        }
      ],
      "payable": false,
      "stateMutability": "view",
      "type": "function"
    },
    {
      "constant": true,
      "inputs": [
        {
          "name": "creator",
          "type": "address"
        }
      ],
      "name": "tokensOfCreator",
      "outputs": [
        {
          "name": "",
          "type": "uint256[]"
        }
      ],
      "payable": false,
      "stateMutability": "view",
      "type": "function"
    },
    {
      "constant": false,
      "inputs": [
        {
          "name": "to",
          "type": "address"
        },
        {
          "name": "approved",
          "type": "bool"
        }
      ],
      "name": "setApprovalForAll",
      "outputs": [],
      "payable": false,
      "stateMutability": "nonpayable",
      "type": "function"
    },
    {
      "constant": false,
      "inputs": [
        {
          "name": "from",
          "type": "address"
        },
        {
          "name": "to",
          "type": "address"
        },
        {
          "name": "tokenId",
          "type": "uint256"
        },
        {
          "name": "_data",
          "type": "bytes"
        }
      ],
      "name": "safeTransferFrom",
      "outputs": [],
      "payable": false,
      "stateMutability": "nonpayable",
      "type": "function"
    },
    {
      "constant": true,
      "inputs": [
        {
          "name": "tokenId",
          "type": "uint256"
        }
      ],
      "name": "tokenURI",
      "outputs": [
        {
          "name": "",
          "type": "string"
        }
      ],
      "payable": false,
      "stateMutability": "view",
      "type": "function"
    },
    {
      "constant": true,
      "inputs": [
        {
          "name": "owner",
          "type": "address"
        },
        {
          "name": "operator",
          "type": "address"
        }
      ],
      "name": "isApprovedForAll",
      "outputs": [
        {
          "name": "",
          "type": "bool"
        }
      ],
      "payable": false,
      "stateMutability": "view",
      "type": "function"
    },
    {
      "inputs": [],
      "payable": false,
      "stateMutability": "nonpayable",
      "type": "constructor"
    },
    {
      "anonymous": false,
      "inputs": [
        {
          "indexed": true,
          "name": "to",
          "type": "address"
        },
        {
          "indexed": true,
          "name": "from",
          "type": "address"
        },
        {
          "indexed": true,
          "name": "tokenId",
          "type": "uint256"
        }
      ],
      "name": "Minted",
      "type": "event"
    },
    {
      "anonymous": false,
      "inputs": [
        {
          "indexed": true,
          "name": "from",
          "type": "address"
        },
        {
          "indexed": true,
          "name": "to",
          "type": "address"
        },
        {
          "indexed": true,
          "name": "tokenId",
          "type": "uint256"
        }
      ],
      "name": "Transfer",
      "type": "event"
    },
    {
      "anonymous": false,
      "inputs": [
        {
          "indexed": true,
          "name": "owner",
          "type": "address"
        },
        {
          "indexed": true,
          "name": "approved",
          "type": "address"
        },
        {
          "indexed": true,
          "name": "tokenId",
          "type": "uint256"
        }
      ],
      "name": "Approval",
      "type": "event"
    },
    {
      "anonymous": false,
      "inputs": [
        {
          "indexed": true,
          "name": "owner",
          "type": "address"
        },
        {
          "indexed": true,
          "name": "operator",
          "type": "address"
        },
        {
          "indexed": false,
          "name": "approved",
          "type": "bool"
        }
      ],
      "name": "ApprovalForAll",
      "type": "event"
    },
    {
      "constant": false,
      "inputs": [
        {
          "name": "to",
          "type": "address"
        },
        {
          "name": "tokenId",
          "type": "uint256"
        },
        {
          "name": "tokenURI",
          "type": "string"
        }
      ],
      "name": "mintWithTokenURI",
      "outputs": [
        {
          "name": "",
          "type": "bool"
        }
      ],
      "payable": false,
      "stateMutability": "nonpayable",
      "type": "function"
    }
  ],
  "bytecode": "0x60806040523480156200001157600080fd5b506040518060400160405280601081526020017f41524b20436f6c6c65637469626c6573000000000000000000000000000000008152506040518060400160405280600381526020017f41524b00000000000000000000000000000000000000000000000000000000008152508181620000986301ffc9a760e01b6200011660201b60201c565b620000b06380ac58cd60e01b6200011660201b60201c565b620000c863780e9d6360e01b6200011660201b60201c565b8151620000dd906009906020850190620001e5565b508051620000f390600a906020840190620001e5565b506200010c635b5e139f60e01b6200011660201b60201c565b505050506200028a565b7fffffffff000000000000000000000000000000000000000000000000000000008082161415620001a857604080517f08c379a000000000000000000000000000000000000000000000000000000000815260206004820152601c60248201527f4552433136353a20696e76616c696420696e7465726661636520696400000000604482015290519081900360640190fd5b7fffffffff00000000000000000000000000000000000000000000000000000000166000908152602081905260409020805460ff19166001179055565b828054600181600116156101000203166002900490600052602060002090601f016020900481019282601f106200022857805160ff191683800117855562000258565b8280016001018555821562000258579182015b82811115620002585782518255916020019190600101906200023b565b50620002669291506200026a565b5090565b6200028791905b8082111562000266576000815560010162000271565b90565b6119b3806200029a6000396000f3fe608060405234801561001057600080fd5b50600436106101375760003560e01c806350bb4e7f116100b857806395d89b411161007c57806395d89b41146104d857806396cc6a34146104e0578063a22cb46514610506578063b88d4fde14610534578063c87b56dd146105fa578063e985e9c51461061757610137565b806350bb4e7f14610347578063589a1743146104025780636352211e1461041f57806370a082311461043c5780638462151c1461046257610137565b806323b872dd116100ff57806323b872dd146102755780632f745c59146102ab57806342842e0e146102d75780634f558e791461030d5780634f6ccce71461032a57610137565b806301ffc9a71461013c57806306fdde0314610177578063081812fc146101f4578063095ea7b31461022d57806318160ddd1461025b575b600080fd5b6101636004803603602081101561015257600080fd5b50356001600160e01b031916610645565b604080519115158252519081900360200190f35b61017f610664565b6040805160208082528351818301528351919283929083019185019080838360005b838110156101b95781810151838201526020016101a1565b50505050905090810190601f1680156101e65780820380516001836020036101000a031916815260200191505b509250505060405180910390f35b6102116004803603602081101561020a57600080fd5b50356106fb565b604080516001600160a01b039092168252519081900360200190f35b6102596004803603604081101561024357600080fd5b506001600160a01b038135169060200135610760565b005b610263610877565b60408051918252519081900360200190f35b6102596004803603606081101561028b57600080fd5b506001600160a01b0381358116916020810135909116906040013561087d565b610263600480360360408110156102c157600080fd5b506001600160a01b0381351690602001356108d5565b610259600480360360608110156102ed57600080fd5b506001600160a01b03813581169160208101359091169060400135610957565b6101636004803603602081101561032357600080fd5b5035610972565b6102636004803603602081101561034057600080fd5b5035610983565b6101636004803603606081101561035d57600080fd5b6001600160a01b038235169160208101359181019060608101604082013564010000000081111561038d57600080fd5b82018360208201111561039f57600080fd5b803590602001918460018302840111640100000000831117156103c157600080fd5b91908080601f0160208091040260200160405190810160405280939291908181526020018383808284376000920191909152509295506109ec945050505050565b6102116004803603602081101561041857600080fd5b5035610a44565b6102116004803603602081101561043557600080fd5b5035610a9b565b6102636004803603602081101561045257600080fd5b50356001600160a01b0316610af2565b6104886004803603602081101561047857600080fd5b50356001600160a01b0316610b5d565b60408051602080825283518183015283519192839290830191858101910280838360005b838110156104c45781810151838201526020016104ac565b505050509050019250505060405180910390f35b61017f610bbe565b610488600480360360208110156104f657600080fd5b50356001600160a01b0316610c1f565b6102596004803603604081101561051c57600080fd5b506001600160a01b0381351690602001351515610c2a565b6102596004803603608081101561054a57600080fd5b6001600160a01b0382358116926020810135909116916040820135919081019060808101606082013564010000000081111561058557600080fd5b82018360208201111561059757600080fd5b803590602001918460018302840111640100000000831117156105b957600080fd5b91908080601f016020809104026020016040519081016040528093929190818152602001838380828437600092019190915250929550610cf9945050505050565b61017f6004803603602081101561061057600080fd5b5035610d54565b6101636004803603604081101561062d57600080fd5b506001600160a01b0381358116916020013516610e32565b6001600160e01b03191660009081526020819052604090205460ff1690565b60098054604080516020601f60026000196101006001881615020190951694909404938401819004810282018101909252828152606093909290918301828280156106f05780601f106106c5576101008083540402835291602001916106f0565b820191906000526020600020905b8154815290600101906020018083116106d357829003601f168201915b505050505090505b90565b600061070682610e60565b61074457604051600160e51b62461bcd02815260040180806020018281038252602c81526020018061182f602c913960400191505060405180910390fd5b506000908152600260205260409020546001600160a01b031690565b600061076b82610a9b565b9050806001600160a01b0316836001600160a01b031614156107c157604051600160e51b62461bcd0281526004018080602001828103825260218152602001806118df6021913960400191505060405180910390fd5b336001600160a01b03821614806107dd57506107dd8133610e32565b61081b57604051600160e51b62461bcd0281526004018080602001828103825260388152602001806117a46038913960400191505060405180910390fd5b60008281526002602052604080822080546001600160a01b0319166001600160a01b0387811691821790925591518593918516917f8c5be1e5ebec7d5bd14f71427d1e84f3dd0314c0f7b2291e5b200ac8c7c3b92591a4505050565b60075490565b6108873382610e7d565b6108c557604051600160e51b62461bcd0281526004018080602001828103825260318152602001806119006031913960400191505060405180910390fd5b6108d0838383610f24565b505050565b60006108e083610af2565b821061092057604051600160e51b62461bcd02815260040180806020018281038252602b8152602001806116f7602b913960400191505060405180910390fd5b6001600160a01b038316600090815260056020526040902080548390811061094457fe5b9060005260206000200154905092915050565b6108d083838360405180602001604052806000815250610cf9565b600061097d82610e60565b92915050565b600061098d610877565b82106109cd57604051600160e51b62461bcd02815260040180806020018281038252602c815260200180611931602c913960400191505060405180910390fd5b600782815481106109da57fe5b90600052602060002001549050919050565b60006109f88484610f43565b610a028383610f8b565b604051839033906001600160a01b038716907f9d228d69b5fdb8d273a2336f8fb8612d039631024ea9bf09c424a9503aa078f090600090a45060019392505050565b6000818152600d60205260408120546001600160a01b03168061097d57604051600160e51b62461bcd02815260040180806020018281038252602b81526020018061195d602b913960400191505060405180910390fd5b6000818152600160205260408120546001600160a01b03168061097d57604051600160e51b62461bcd0281526004018080602001828103825260298152602001806118066029913960400191505060405180910390fd5b60006001600160a01b038216610b3c57604051600160e51b62461bcd02815260040180806020018281038252602a8152602001806117dc602a913960400191505060405180910390fd5b6001600160a01b038216600090815260036020526040902061097d90610ff1565b6060610b6882610ff5565b805480602002602001604051908101604052809291908181526020018280548015610bb257602002820191906000526020600020905b815481526020019060010190808311610b9e575b50505050509050919050565b600a8054604080516020601f60026000196101006001881615020190951694909404938401819004810282018101909252828152606093909290918301828280156106f05780601f106106c5576101008083540402835291602001916106f0565b6060610b688261100f565b6001600160a01b038216331415610c8b5760408051600160e51b62461bcd02815260206004820152601960248201527f4552433732313a20617070726f766520746f2063616c6c657200000000000000604482015290519081900360640190fd5b3360008181526004602090815260408083206001600160a01b03871680855290835292819020805460ff1916861515908117909155815190815290519293927f17307eab39ab6107e8899845ad3d59bd9653f200f220920489ca2b5937696c31929181900390910190a35050565b610d0484848461087d565b610d1084848484611029565b610d4e57604051600160e51b62461bcd0281526004018080602001828103825260328152602001806117226032913960400191505060405180910390fd5b50505050565b6060610d5f82610e60565b610d9d57604051600160e51b62461bcd02815260040180806020018281038252602f8152602001806118b0602f913960400191505060405180910390fd5b6000828152600b602090815260409182902080548351601f600260001961010060018616150201909316929092049182018490048402810184019094528084529091830182828015610bb25780601f10610e0557610100808354040283529160200191610bb2565b820191906000526020600020905b815481529060010190602001808311610e135750939695505050505050565b6001600160a01b03918216600090815260046020908152604080832093909416825291909152205460ff1690565b6000908152600160205260409020546001600160a01b0316151590565b6000610e8882610e60565b610ec657604051600160e51b62461bcd02815260040180806020018281038252602c815260200180611778602c913960400191505060405180910390fd5b6000610ed183610a9b565b9050806001600160a01b0316846001600160a01b03161480610f0c5750836001600160a01b0316610f01846106fb565b6001600160a01b0316145b80610f1c5750610f1c8185610e32565b949350505050565b610f2f838383611162565b610f3983826112ac565b6108d082826113a1565b336000818152600c60209081526040808320805460018101825590845282842001859055848352600d909152902080546001600160a01b031916821790556108d083836113df565b610f9482610e60565b610fd257604051600160e51b62461bcd02815260040180806020018281038252602c81526020018061185b602c913960400191505060405180910390fd5b6000828152600b6020908152604090912082516108d09284019061163e565b5490565b6001600160a01b0316600090815260056020526040902090565b6001600160a01b03166000908152600c6020526040902090565b600061103d846001600160a01b0316611400565b61104957506001610f1c565b604051600160e11b630a85bd0102815233600482018181526001600160a01b03888116602485015260448401879052608060648501908152865160848601528651600095928a169463150b7a029490938c938b938b939260a4019060208501908083838e5b838110156110c65781810151838201526020016110ae565b50505050905090810190601f1680156110f35780820380516001836020036101000a031916815260200191505b5095505050505050602060405180830381600087803b15801561111557600080fd5b505af1158015611129573d6000803e3d6000fd5b505050506040513d602081101561113f57600080fd5b50516001600160e01b031916600160e11b630a85bd010214915050949350505050565b826001600160a01b031661117582610a9b565b6001600160a01b0316146111bd57604051600160e51b62461bcd0281526004018080602001828103825260298152602001806118876029913960400191505060405180910390fd5b6001600160a01b03821661120557604051600160e51b62461bcd0281526004018080602001828103825260248152602001806117546024913960400191505060405180910390fd5b61120e81611406565b6001600160a01b038316600090815260036020526040902061122f90611443565b6001600160a01b03821660009081526003602052604090206112509061145a565b60008181526001602052604080822080546001600160a01b0319166001600160a01b0386811691821790925591518493918716917fddf252ad1be2c89b69c2b068fc378daa952ba7f163c4a11628f55a4df523b3ef91a4505050565b6001600160a01b0382166000908152600560205260408120546112d690600163ffffffff61146316565b600083815260066020526040902054909150808214611371576001600160a01b038416600090815260056020526040812080548490811061131357fe5b906000526020600020015490508060056000876001600160a01b03166001600160a01b03168152602001908152602001600020838154811061135157fe5b600091825260208083209091019290925591825260069052604090208190555b6001600160a01b038416600090815260056020526040902080549061139a9060001983016116bc565b5050505050565b6001600160a01b0390911660009081526005602081815260408084208054868652600684529185208290559282526001810183559183529091200155565b6113e982826114c3565b6113f382826113a1565b6113fc816115fa565b5050565b3b151590565b6000818152600260205260409020546001600160a01b03161561144057600081815260026020526040902080546001600160a01b03191690555b50565b805461145690600163ffffffff61146316565b9055565b80546001019055565b6000828211156114bd5760408051600160e51b62461bcd02815260206004820152601e60248201527f536166654d6174683a207375627472616374696f6e206f766572666c6f770000604482015290519081900360640190fd5b50900390565b6001600160a01b0382166115215760408051600160e51b62461bcd02815260206004820181905260248201527f4552433732313a206d696e7420746f20746865207a65726f2061646472657373604482015290519081900360640190fd5b61152a81610e60565b1561157f5760408051600160e51b62461bcd02815260206004820152601c60248201527f4552433732313a20746f6b656e20616c7265616479206d696e74656400000000604482015290519081900360640190fd5b600081815260016020908152604080832080546001600160a01b0319166001600160a01b0387169081179091558352600390915290206115be9061145a565b60405181906001600160a01b038416906000907fddf252ad1be2c89b69c2b068fc378daa952ba7f163c4a11628f55a4df523b3ef908290a45050565b600780546000838152600860205260408120829055600182018355919091527fa66cc928b5edb82af9bd49922954155ab7b0942694bea4ce44661d9a8736c6880155565b828054600181600116156101000203166002900490600052602060002090601f016020900481019282601f1061167f57805160ff19168380011785556116ac565b828001600101855582156116ac579182015b828111156116ac578251825591602001919060010190611691565b506116b89291506116dc565b5090565b8154818355818111156108d0576000838152602090206108d09181019083015b6106f891905b808211156116b857600081556001016116e256fe455243373231456e756d657261626c653a206f776e657220696e646578206f7574206f6620626f756e64734552433732313a207472616e7366657220746f206e6f6e20455243373231526563656976657220696d706c656d656e7465724552433732313a207472616e7366657220746f20746865207a65726f20616464726573734552433732313a206f70657261746f7220717565727920666f72206e6f6e6578697374656e7420746f6b656e4552433732313a20617070726f76652063616c6c6572206973206e6f74206f776e6572206e6f7220617070726f76656420666f7220616c6c4552433732313a2062616c616e636520717565727920666f7220746865207a65726f20616464726573734552433732313a206f776e657220717565727920666f72206e6f6e6578697374656e7420746f6b656e4552433732313a20617070726f76656420717565727920666f72206e6f6e6578697374656e7420746f6b656e4552433732314d657461646174613a2055524920736574206f66206e6f6e6578697374656e7420746f6b656e4552433732313a207472616e73666572206f6620746f6b656e2074686174206973206e6f74206f776e4552433732314d657461646174613a2055524920717565727920666f72206e6f6e6578697374656e7420746f6b656e4552433732313a20617070726f76616c20746f2063757272656e74206f776e65724552433732313a207472616e736665722063616c6c6572206973206e6f74206f776e6572206e6f7220617070726f766564455243373231456e756d657261626c653a20676c6f62616c20696e646578206f7574206f6620626f756e64734552433732313a2063726561746f7220717565727920666f72206e6f6e6578697374656e7420746f6b656ea165627a7a723058207ae2b2fb56695d5c057926c6dcd48de9f31a902cd53a7aefbeac01908c16f7980029",
  "source": "pragma solidity 0.5.8;\n\nimport \"openzeppelin-solidity/contracts/token/ERC721/ERC721Full.sol\";\nimport \"./ERC721CreatorEnumerable.sol\";\n\ncontract Collectibles is ERC721Full, ERC721CreatorEnumerable {\n  event Minted(address indexed to, address indexed from, uint indexed tokenId);\n\n  constructor () public ERC721Full(\"ARK Collectibles\", \"ARK\") {\n    // TODO: Other data e.g. editions\n  }\n\n  /**\n    * @dev Function to mint tokens.\n    * @param to The address that will receive the minted tokens.\n    * @param tokenId The token id to mint.\n    * @param tokenURI The token URI of the minted token.\n    * @return A boolean that indicates if the operation was successful.\n    */\n  function mintWithTokenURI(address to, uint tokenId, string memory tokenURI) public returns (bool) {\n      _mint(to, tokenId);\n      _setTokenURI(tokenId, tokenURI);\n      emit Minted(to, msg.sender, tokenId);\n      return true;\n  }\n}",
  "sourcePath": "/Users/yos/ark-minter/contracts/Collectibles.sol",
  "compiler": {
    "name": "solc",
    "version": "0.5.8+commit.23d335f2.Emscripten.clang"
  },
  "schemaVersion": "3.0.11",
  "updatedAt": "2019-06-23T12:06:19.767Z",
  "devdoc": {
    "methods": {
      "approve(address,uint256)": {
        "details": "Approves another address to transfer the given token ID The zero address indicates there is no approved address. There can only be one approved address per token at a given time. Can only be called by the token owner or an approved operator.",
        "params": {
          "to": "address to be approved for the given token ID",
          "tokenId": "uint256 ID of the token to be approved"
        }
      },
      "balanceOf(address)": {
        "details": "Gets the balance of the specified address.",
        "params": {
          "owner": "address to query the balance of"
        },
        "return": "uint256 representing the amount owned by the passed address"
      },
      "creatorOf(uint256)": {
        "details": "Gets the creator of the specified token ID.",
        "params": {
          "tokenId": "uint ID of the token to query the creator of"
        },
        "return": "address currently marked as the creator of the given token ID"
      },
      "getApproved(uint256)": {
        "details": "Gets the approved address for a token ID, or zero if no address set Reverts if the token ID does not exist.",
        "params": {
          "tokenId": "uint256 ID of the token to query the approval of"
        },
        "return": "address currently approved for the given token ID"
      },
      "isApprovedForAll(address,address)": {
        "details": "Tells whether an operator is approved by a given owner.",
        "params": {
          "operator": "operator address which you want to query the approval of",
          "owner": "owner address which you want to query the approval of"
        },
        "return": "bool whether the given operator is approved by the given owner"
      },
      "mintWithTokenURI(address,uint256,string)": {
        "details": "Function to mint tokens.",
        "params": {
          "to": "The address that will receive the minted tokens.",
          "tokenId": "The token id to mint.",
          "tokenURI": "The token URI of the minted token."
        },
        "return": "A boolean that indicates if the operation was successful."
      },
      "name()": {
        "details": "Gets the token name.",
        "return": "string representing the token name"
      },
      "ownerOf(uint256)": {
        "details": "Gets the owner of the specified token ID.",
        "params": {
          "tokenId": "uint256 ID of the token to query the owner of"
        },
        "return": "address currently marked as the owner of the given token ID"
      },
      "safeTransferFrom(address,address,uint256)": {
        "details": "Safely transfers the ownership of a given token ID to another address If the target address is a contract, it must implement `onERC721Received`, which is called upon a safe transfer, and return the magic value `bytes4(keccak256(\"onERC721Received(address,address,uint256,bytes)\"))`; otherwise, the transfer is reverted. Requires the msg.sender to be the owner, approved, or operator",
        "params": {
          "from": "current owner of the token",
          "to": "address to receive the ownership of the given token ID",
          "tokenId": "uint256 ID of the token to be transferred"
        }
      },
      "safeTransferFrom(address,address,uint256,bytes)": {
        "details": "Safely transfers the ownership of a given token ID to another address If the target address is a contract, it must implement `onERC721Received`, which is called upon a safe transfer, and return the magic value `bytes4(keccak256(\"onERC721Received(address,address,uint256,bytes)\"))`; otherwise, the transfer is reverted. Requires the msg.sender to be the owner, approved, or operator",
        "params": {
          "_data": "bytes data to send along with a safe transfer check",
          "from": "current owner of the token",
          "to": "address to receive the ownership of the given token ID",
          "tokenId": "uint256 ID of the token to be transferred"
        }
      },
      "setApprovalForAll(address,bool)": {
        "details": "Sets or unsets the approval of a given operator An operator is allowed to transfer all tokens of the sender on their behalf.",
        "params": {
          "approved": "representing the status of the approval to be set",
          "to": "operator address to set the approval"
        }
      },
      "supportsInterface(bytes4)": {
        "details": "See `IERC165.supportsInterface`.     * Time complexity O(1), guaranteed to always use less than 30 000 gas."
      },
      "symbol()": {
        "details": "Gets the token symbol.",
        "return": "string representing the token symbol"
      },
      "tokenByIndex(uint256)": {
        "details": "Gets the token ID at a given index of all the tokens in this contract Reverts if the index is greater or equal to the total number of tokens.",
        "params": {
          "index": "uint256 representing the index to be accessed of the tokens list"
        },
        "return": "uint256 token ID at the given index of the tokens list"
      },
      "tokenOfOwnerByIndex(address,uint256)": {
        "details": "Gets the token ID at a given index of the tokens list of the requested owner.",
        "params": {
          "index": "uint256 representing the index to be accessed of the requested tokens list",
          "owner": "address owning the tokens list to be accessed"
        },
        "return": "uint256 token ID at the given index of the tokens list owned by the requested address"
      },
      "tokenURI(uint256)": {
        "details": "Returns an URI for a given token ID. Throws if the token ID does not exist. May return an empty string.",
        "params": {
          "tokenId": "uint256 ID of the token to query"
        }
      },
      "totalSupply()": {
        "details": "Gets the total amount of tokens stored by the contract.",
        "return": "uint256 representing the total amount of tokens"
      },
      "transferFrom(address,address,uint256)": {
        "details": "Transfers the ownership of a given token ID to another address. Usage of this method is discouraged, use `safeTransferFrom` whenever possible. Requires the msg.sender to be the owner, approved, or operator.",
        "params": {
          "from": "current owner of the token",
          "to": "address to receive the ownership of the given token ID",
          "tokenId": "uint256 ID of the token to be transferred"
        }
      }
    }
  },
  "userdoc": {
    "methods": {}
  }
}