{
  "contractName": "ERC721CreatorEnumerable",
  "abi": [
    {
      "constant": true,
      "inputs": [
        {
          "name": "interfaceId",
          "type": "bytes4"
        }
      ],
      "name": "supportsInterface",
      "outputs": [
        {
          "name": "",
          "type": "bool"
        }
      ],
      "payable": false,
      "stateMutability": "view",
      "type": "function"
    },
    {
      "constant": true,
      "inputs": [
        {
          "name": "tokenId",
          "type": "uint256"
        }
      ],
      "name": "getApproved",
      "outputs": [
        {
          "name": "",
          "type": "address"
        }
      ],
      "payable": false,
      "stateMutability": "view",
      "type": "function"
    },
    {
      "constant": false,
      "inputs": [
        {
          "name": "to",
          "type": "address"
        },
        {
          "name": "tokenId",
          "type": "uint256"
        }
      ],
      "name": "approve",
      "outputs": [],
      "payable": false,
      "stateMutability": "nonpayable",
      "type": "function"
    },
    {
      "constant": true,
      "inputs": [],
      "name": "totalSupply",
      "outputs": [
        {
          "name": "",
          "type": "uint256"
        }
      ],
      "payable": false,
      "stateMutability": "view",
      "type": "function"
    },
    {
      "constant": false,
      "inputs": [
        {
          "name": "from",
          "type": "address"
        },
        {
          "name": "to",
          "type": "address"
        },
        {
          "name": "tokenId",
          "type": "uint256"
        }
      ],
      "name": "transferFrom",
      "outputs": [],
      "payable": false,
      "stateMutability": "nonpayable",
      "type": "function"
    },
    {
      "constant": true,
      "inputs": [
        {
          "name": "owner",
          "type": "address"
        },
        {
          "name": "index",
          "type": "uint256"
        }
      ],
      "name": "tokenOfOwnerByIndex",
      "outputs": [
        {
          "name": "",
          "type": "uint256"
        }
      ],
      "payable": false,
      "stateMutability": "view",
      "type": "function"
    },
    {
      "constant": false,
      "inputs": [
        {
          "name": "from",
          "type": "address"
        },
        {
          "name": "to",
          "type": "address"
        },
        {
          "name": "tokenId",
          "type": "uint256"
        }
      ],
      "name": "safeTransferFrom",
      "outputs": [],
      "payable": false,
      "stateMutability": "nonpayable",
      "type": "function"
    },
    {
      "constant": true,
      "inputs": [
        {
          "name": "index",
          "type": "uint256"
        }
      ],
      "name": "tokenByIndex",
      "outputs": [
        {
          "name": "",
          "type": "uint256"
        }
      ],
      "payable": false,
      "stateMutability": "view",
      "type": "function"
    },
    {
      "constant": true,
      "inputs": [
        {
          "name": "tokenId",
          "type": "uint256"
        }
      ],
      "name": "ownerOf",
      "outputs": [
        {
          "name": "",
          "type": "address"
        }
      ],
      "payable": false,
      "stateMutability": "view",
      "type": "function"
    },
    {
      "constant": true,
      "inputs": [
        {
          "name": "owner",
          "type": "address"
        }
      ],
      "name": "balanceOf",
      "outputs": [
        {
          "name": "",
          "type": "uint256"
        }
      ],
      "payable": false,
      "stateMutability": "view",
      "type": "function"
    },
    {
      "constant": false,
      "inputs": [
        {
          "name": "to",
          "type": "address"
        },
        {
          "name": "approved",
          "type": "bool"
        }
      ],
      "name": "setApprovalForAll",
      "outputs": [],
      "payable": false,
      "stateMutability": "nonpayable",
      "type": "function"
    },
    {
      "constant": false,
      "inputs": [
        {
          "name": "from",
          "type": "address"
        },
        {
          "name": "to",
          "type": "address"
        },
        {
          "name": "tokenId",
          "type": "uint256"
        },
        {
          "name": "_data",
          "type": "bytes"
        }
      ],
      "name": "safeTransferFrom",
      "outputs": [],
      "payable": false,
      "stateMutability": "nonpayable",
      "type": "function"
    },
    {
      "constant": true,
      "inputs": [
        {
          "name": "owner",
          "type": "address"
        },
        {
          "name": "operator",
          "type": "address"
        }
      ],
      "name": "isApprovedForAll",
      "outputs": [
        {
          "name": "",
          "type": "bool"
        }
      ],
      "payable": false,
      "stateMutability": "view",
      "type": "function"
    },
    {
      "anonymous": false,
      "inputs": [
        {
          "indexed": true,
          "name": "from",
          "type": "address"
        },
        {
          "indexed": true,
          "name": "to",
          "type": "address"
        },
        {
          "indexed": true,
          "name": "tokenId",
          "type": "uint256"
        }
      ],
      "name": "Transfer",
      "type": "event"
    },
    {
      "anonymous": false,
      "inputs": [
        {
          "indexed": true,
          "name": "owner",
          "type": "address"
        },
        {
          "indexed": true,
          "name": "approved",
          "type": "address"
        },
        {
          "indexed": true,
          "name": "tokenId",
          "type": "uint256"
        }
      ],
      "name": "Approval",
      "type": "event"
    },
    {
      "anonymous": false,
      "inputs": [
        {
          "indexed": true,
          "name": "owner",
          "type": "address"
        },
        {
          "indexed": true,
          "name": "operator",
          "type": "address"
        },
        {
          "indexed": false,
          "name": "approved",
          "type": "bool"
        }
      ],
      "name": "ApprovalForAll",
      "type": "event"
    },
    {
      "constant": true,
      "inputs": [
        {
          "name": "tokenId",
          "type": "uint256"
        }
      ],
      "name": "exists",
      "outputs": [
        {
          "name": "",
          "type": "bool"
        }
      ],
      "payable": false,
      "stateMutability": "view",
      "type": "function"
    },
    {
      "constant": true,
      "inputs": [
        {
          "name": "tokenId",
          "type": "uint256"
        }
      ],
      "name": "creatorOf",
      "outputs": [
        {
          "name": "",
          "type": "address"
        }
      ],
      "payable": false,
      "stateMutability": "view",
      "type": "function"
    },
    {
      "constant": true,
      "inputs": [
        {
          "name": "creator",
          "type": "address"
        }
      ],
      "name": "tokensOfCreator",
      "outputs": [
        {
          "name": "",
          "type": "uint256[]"
        }
      ],
      "payable": false,
      "stateMutability": "view",
      "type": "function"
    },
    {
      "constant": true,
      "inputs": [
        {
          "name": "owner",
          "type": "address"
        }
      ],
      "name": "tokensOfOwner",
      "outputs": [
        {
          "name": "",
          "type": "uint256[]"
        }
      ],
      "payable": false,
      "stateMutability": "view",
      "type": "function"
    }
  ],
  "bytecode": "0x608060405261001a6301ffc9a760e01b61004b60201b60201c565b6100306380ac58cd60e01b61004b60201b60201c565b61004663780e9d6360e01b61004b60201b60201c565b610119565b7fffffffff0000000000000000000000000000000000000000000000000000000080821614156100dc57604080517f08c379a000000000000000000000000000000000000000000000000000000000815260206004820152601c60248201527f4552433136353a20696e76616c696420696e7465726661636520696400000000604482015290519081900360640190fd5b7fffffffff00000000000000000000000000000000000000000000000000000000166000908152602081905260409020805460ff19166001179055565b6112dd806101286000396000f3fe608060405234801561001057600080fd5b506004361061010b5760003560e01c80634f6ccce7116100a25780638462151c116100715780638462151c146102fe57806396cc6a3414610374578063a22cb4651461039a578063b88d4fde146103c8578063e985e9c51461048e5761010b565b80634f6ccce714610281578063589a17431461029e5780636352211e146102bb57806370a08231146102d85761010b565b806323b872dd116100de57806323b872dd146101cc5780632f745c591461020257806342842e0e1461022e5780634f558e79146102645761010b565b806301ffc9a714610110578063081812fc1461014b578063095ea7b31461018457806318160ddd146101b2575b600080fd5b6101376004803603602081101561012657600080fd5b50356001600160e01b0319166104bc565b604080519115158252519081900360200190f35b6101686004803603602081101561016157600080fd5b50356104db565b604080516001600160a01b039092168252519081900360200190f35b6101b06004803603604081101561019a57600080fd5b506001600160a01b038135169060200135610540565b005b6101ba610657565b60408051918252519081900360200190f35b6101b0600480360360608110156101e257600080fd5b506001600160a01b0381358116916020810135909116906040013561065e565b6101ba6004803603604081101561021857600080fd5b506001600160a01b0381351690602001356106b6565b6101b06004803603606081101561024457600080fd5b506001600160a01b03813581169160208101359091169060400135610738565b6101376004803603602081101561027a57600080fd5b5035610753565b6101ba6004803603602081101561029757600080fd5b5035610764565b610168600480360360208110156102b457600080fd5b50356107cd565b610168600480360360208110156102d157600080fd5b5035610824565b6101ba600480360360208110156102ee57600080fd5b50356001600160a01b031661087b565b6103246004803603602081101561031457600080fd5b50356001600160a01b03166108e6565b60408051602080825283518183015283519192839290830191858101910280838360005b83811015610360578181015183820152602001610348565b505050509050019250505060405180910390f35b6103246004803603602081101561038a57600080fd5b50356001600160a01b0316610947565b6101b0600480360360408110156103b057600080fd5b506001600160a01b0381351690602001351515610952565b6101b0600480360360808110156103de57600080fd5b6001600160a01b0382358116926020810135909116916040820135919081019060808101606082013564010000000081111561041957600080fd5b82018360208201111561042b57600080fd5b8035906020019184600183028401116401000000008311171561044d57600080fd5b91908080601f016020809104026020016040519081016040528093929190818152602001838380828437600092019190915250929550610a21945050505050565b610137600480360360408110156104a457600080fd5b506001600160a01b0381358116916020013516610a7c565b6001600160e01b03191660009081526020819052604090205460ff1690565b60006104e682610aaa565b61052457604051600160e51b62461bcd02815260040180806020018281038252602c8152602001806111b4602c913960400191505060405180910390fd5b506000908152600260205260409020546001600160a01b031690565b600061054b82610824565b9050806001600160a01b0316836001600160a01b031614156105a157604051600160e51b62461bcd0281526004018080602001828103825260218152602001806112096021913960400191505060405180910390fd5b336001600160a01b03821614806105bd57506105bd8133610a7c565b6105fb57604051600160e51b62461bcd0281526004018080602001828103825260388152602001806111296038913960400191505060405180910390fd5b60008281526002602052604080822080546001600160a01b0319166001600160a01b0387811691821790925591518593918516917f8c5be1e5ebec7d5bd14f71427d1e84f3dd0314c0f7b2291e5b200ac8c7c3b92591a4505050565b6007545b90565b6106683382610ac7565b6106a657604051600160e51b62461bcd02815260040180806020018281038252603181526020018061122a6031913960400191505060405180910390fd5b6106b1838383610b6e565b505050565b60006106c18361087b565b821061070157604051600160e51b62461bcd02815260040180806020018281038252602b81526020018061107c602b913960400191505060405180910390fd5b6001600160a01b038316600090815260056020526040902080548390811061072557fe5b9060005260206000200154905092915050565b6106b183838360405180602001604052806000815250610a21565b600061075e82610aaa565b92915050565b600061076e610657565b82106107ae57604051600160e51b62461bcd02815260040180806020018281038252602c81526020018061125b602c913960400191505060405180910390fd5b600782815481106107bb57fe5b90600052602060002001549050919050565b6000818152600a60205260408120546001600160a01b03168061075e57604051600160e51b62461bcd02815260040180806020018281038252602b815260200180611287602b913960400191505060405180910390fd5b6000818152600160205260408120546001600160a01b03168061075e57604051600160e51b62461bcd02815260040180806020018281038252602981526020018061118b6029913960400191505060405180910390fd5b60006001600160a01b0382166108c557604051600160e51b62461bcd02815260040180806020018281038252602a815260200180611161602a913960400191505060405180910390fd5b6001600160a01b038216600090815260036020526040902061075e90610b8d565b60606108f182610b91565b80548060200260200160405190810160405280929190818152602001828054801561093b57602002820191906000526020600020905b815481526020019060010190808311610927575b50505050509050919050565b60606108f182610bab565b6001600160a01b0382163314156109b35760408051600160e51b62461bcd02815260206004820152601960248201527f4552433732313a20617070726f766520746f2063616c6c657200000000000000604482015290519081900360640190fd5b3360008181526004602090815260408083206001600160a01b03871680855290835292819020805460ff1916861515908117909155815190815290519293927f17307eab39ab6107e8899845ad3d59bd9653f200f220920489ca2b5937696c31929181900390910190a35050565b610a2c84848461065e565b610a3884848484610bc5565b610a7657604051600160e51b62461bcd0281526004018080602001828103825260328152602001806110a76032913960400191505060405180910390fd5b50505050565b6001600160a01b03918216600090815260046020908152604080832093909416825291909152205460ff1690565b6000908152600160205260409020546001600160a01b0316151590565b6000610ad282610aaa565b610b1057604051600160e51b62461bcd02815260040180806020018281038252602c8152602001806110fd602c913960400191505060405180910390fd5b6000610b1b83610824565b9050806001600160a01b0316846001600160a01b03161480610b565750836001600160a01b0316610b4b846104db565b6001600160a01b0316145b80610b665750610b668185610a7c565b949350505050565b610b79838383610cfe565b610b838382610e48565b6106b18282610f3d565b5490565b6001600160a01b0316600090815260056020526040902090565b6001600160a01b0316600090815260096020526040902090565b6000610bd9846001600160a01b0316610f7b565b610be557506001610b66565b604051600160e11b630a85bd0102815233600482018181526001600160a01b03888116602485015260448401879052608060648501908152865160848601528651600095928a169463150b7a029490938c938b938b939260a4019060208501908083838e5b83811015610c62578181015183820152602001610c4a565b50505050905090810190601f168015610c8f5780820380516001836020036101000a031916815260200191505b5095505050505050602060405180830381600087803b158015610cb157600080fd5b505af1158015610cc5573d6000803e3d6000fd5b505050506040513d6020811015610cdb57600080fd5b50516001600160e01b031916600160e11b630a85bd010214915050949350505050565b826001600160a01b0316610d1182610824565b6001600160a01b031614610d5957604051600160e51b62461bcd0281526004018080602001828103825260298152602001806111e06029913960400191505060405180910390fd5b6001600160a01b038216610da157604051600160e51b62461bcd0281526004018080602001828103825260248152602001806110d96024913960400191505060405180910390fd5b610daa81610f81565b6001600160a01b0383166000908152600360205260409020610dcb90610fbe565b6001600160a01b0382166000908152600360205260409020610dec90610fd5565b60008181526001602052604080822080546001600160a01b0319166001600160a01b0386811691821790925591518493918716917fddf252ad1be2c89b69c2b068fc378daa952ba7f163c4a11628f55a4df523b3ef91a4505050565b6001600160a01b038216600090815260056020526040812054610e7290600163ffffffff610fde16565b600083815260066020526040902054909150808214610f0d576001600160a01b0384166000908152600560205260408120805484908110610eaf57fe5b906000526020600020015490508060056000876001600160a01b03166001600160a01b031681526020019081526020016000208381548110610eed57fe5b600091825260208083209091019290925591825260069052604090208190555b6001600160a01b0384166000908152600560205260409020805490610f3690600019830161103e565b5050505050565b6001600160a01b0390911660009081526005602081815260408084208054868652600684529185208290559282526001810183559183529091200155565b3b151590565b6000818152600260205260409020546001600160a01b031615610fbb57600081815260026020526040902080546001600160a01b03191690555b50565b8054610fd190600163ffffffff610fde16565b9055565b80546001019055565b6000828211156110385760408051600160e51b62461bcd02815260206004820152601e60248201527f536166654d6174683a207375627472616374696f6e206f766572666c6f770000604482015290519081900360640190fd5b50900390565b8154818355818111156106b1576000838152602090206106b191810190830161065b91905b808211156110775760008155600101611063565b509056fe455243373231456e756d657261626c653a206f776e657220696e646578206f7574206f6620626f756e64734552433732313a207472616e7366657220746f206e6f6e20455243373231526563656976657220696d706c656d656e7465724552433732313a207472616e7366657220746f20746865207a65726f20616464726573734552433732313a206f70657261746f7220717565727920666f72206e6f6e6578697374656e7420746f6b656e4552433732313a20617070726f76652063616c6c6572206973206e6f74206f776e6572206e6f7220617070726f76656420666f7220616c6c4552433732313a2062616c616e636520717565727920666f7220746865207a65726f20616464726573734552433732313a206f776e657220717565727920666f72206e6f6e6578697374656e7420746f6b656e4552433732313a20617070726f76656420717565727920666f72206e6f6e6578697374656e7420746f6b656e4552433732313a207472616e73666572206f6620746f6b656e2074686174206973206e6f74206f776e4552433732313a20617070726f76616c20746f2063757272656e74206f776e65724552433732313a207472616e736665722063616c6c6572206973206e6f74206f776e6572206e6f7220617070726f766564455243373231456e756d657261626c653a20676c6f62616c20696e646578206f7574206f6620626f756e64734552433732313a2063726561746f7220717565727920666f72206e6f6e6578697374656e7420746f6b656ea165627a7a72305820fb57873b109233dd018ecff6f937c6c705e8e2c0c34f8d65888462a2b6ad20240029",
  "source": "pragma solidity 0.5.8;\n\nimport \"openzeppelin-solidity/contracts/token/ERC721/ERC721Enumerable.sol\";\n\ncontract ERC721CreatorEnumerable is ERC721Enumerable {\n  // Mapping from creator to list of token IDs\n  mapping(address => uint[]) private _createdTokens;\n\n  // Who receives taxes from taxes\n  mapping(uint => address) private _tokenCreator;\n\n  /**\n  * @dev Throws if called by any account other than the creator of a tokenId.\n  */\n  modifier onlyCreatorOf(uint tokenId) {\n      require(exists(tokenId), \"Token doesn't exist.\");\n      require(creatorOf(tokenId) == msg.sender, \"Caller is not the token creator\");\n      _;\n  }\n\n  function exists(uint tokenId) public view returns (bool) {\n    return _exists(tokenId);\n  }\n\n  /**\n  * @dev Gets the creator of the specified token ID.\n  * @param tokenId uint ID of the token to query the creator of\n  * @return address currently marked as the creator of the given token ID\n  */\n  function creatorOf(uint tokenId) public view returns (address) {\n    address creator = _tokenCreator[tokenId];\n    require(creator != address(0), \"ERC721: creator query for nonexistent token\");\n\n    return creator;\n  }\n\n  function tokensOfCreator(address creator) public view returns (uint[] memory) {\n    return _tokensOfCreator(creator);\n  }\n\n  function tokensOfOwner(address owner) public view returns (uint[] memory) {\n    return _tokensOfOwner(owner);\n  }\n\n  /**\n  * @dev Gets the list of token IDs of the requested creator.\n  * @param creator address who created the tokens\n  * @return uint[] List of token IDs owned by the requested address\n  */\n  function _tokensOfCreator(address creator) internal view returns (uint[] storage) {\n    return _createdTokens[creator];\n  }\n\n  function _mint(address account, uint256 value) internal {\n    address creator = msg.sender; // Track a Creator's tokens\n    _createdTokens[creator].push(value);\n    _tokenCreator[value] = creator;\n\n    super._mint(account, value);\n  }\n}",
  "sourcePath": "/Users/yos/ark-minter/contracts/ERC721CreatorEnumerable.sol",
  "compiler": {
    "name": "solc",
    "version": "0.5.8+commit.23d335f2.Emscripten.clang"
  },
  "schemaVersion": "3.0.11",
  "updatedAt": "2019-06-23T12:02:36.937Z",
  "devdoc": {
    "methods": {
      "approve(address,uint256)": {
        "details": "Approves another address to transfer the given token ID The zero address indicates there is no approved address. There can only be one approved address per token at a given time. Can only be called by the token owner or an approved operator.",
        "params": {
          "to": "address to be approved for the given token ID",
          "tokenId": "uint256 ID of the token to be approved"
        }
      },
      "balanceOf(address)": {
        "details": "Gets the balance of the specified address.",
        "params": {
          "owner": "address to query the balance of"
        },
        "return": "uint256 representing the amount owned by the passed address"
      },
      "creatorOf(uint256)": {
        "details": "Gets the creator of the specified token ID.",
        "params": {
          "tokenId": "uint ID of the token to query the creator of"
        },
        "return": "address currently marked as the creator of the given token ID"
      },
      "getApproved(uint256)": {
        "details": "Gets the approved address for a token ID, or zero if no address set Reverts if the token ID does not exist.",
        "params": {
          "tokenId": "uint256 ID of the token to query the approval of"
        },
        "return": "address currently approved for the given token ID"
      },
      "isApprovedForAll(address,address)": {
        "details": "Tells whether an operator is approved by a given owner.",
        "params": {
          "operator": "operator address which you want to query the approval of",
          "owner": "owner address which you want to query the approval of"
        },
        "return": "bool whether the given operator is approved by the given owner"
      },
      "ownerOf(uint256)": {
        "details": "Gets the owner of the specified token ID.",
        "params": {
          "tokenId": "uint256 ID of the token to query the owner of"
        },
        "return": "address currently marked as the owner of the given token ID"
      },
      "safeTransferFrom(address,address,uint256)": {
        "details": "Safely transfers the ownership of a given token ID to another address If the target address is a contract, it must implement `onERC721Received`, which is called upon a safe transfer, and return the magic value `bytes4(keccak256(\"onERC721Received(address,address,uint256,bytes)\"))`; otherwise, the transfer is reverted. Requires the msg.sender to be the owner, approved, or operator",
        "params": {
          "from": "current owner of the token",
          "to": "address to receive the ownership of the given token ID",
          "tokenId": "uint256 ID of the token to be transferred"
        }
      },
      "safeTransferFrom(address,address,uint256,bytes)": {
        "details": "Safely transfers the ownership of a given token ID to another address If the target address is a contract, it must implement `onERC721Received`, which is called upon a safe transfer, and return the magic value `bytes4(keccak256(\"onERC721Received(address,address,uint256,bytes)\"))`; otherwise, the transfer is reverted. Requires the msg.sender to be the owner, approved, or operator",
        "params": {
          "_data": "bytes data to send along with a safe transfer check",
          "from": "current owner of the token",
          "to": "address to receive the ownership of the given token ID",
          "tokenId": "uint256 ID of the token to be transferred"
        }
      },
      "setApprovalForAll(address,bool)": {
        "details": "Sets or unsets the approval of a given operator An operator is allowed to transfer all tokens of the sender on their behalf.",
        "params": {
          "approved": "representing the status of the approval to be set",
          "to": "operator address to set the approval"
        }
      },
      "supportsInterface(bytes4)": {
        "details": "See `IERC165.supportsInterface`.     * Time complexity O(1), guaranteed to always use less than 30 000 gas."
      },
      "tokenByIndex(uint256)": {
        "details": "Gets the token ID at a given index of all the tokens in this contract Reverts if the index is greater or equal to the total number of tokens.",
        "params": {
          "index": "uint256 representing the index to be accessed of the tokens list"
        },
        "return": "uint256 token ID at the given index of the tokens list"
      },
      "tokenOfOwnerByIndex(address,uint256)": {
        "details": "Gets the token ID at a given index of the tokens list of the requested owner.",
        "params": {
          "index": "uint256 representing the index to be accessed of the requested tokens list",
          "owner": "address owning the tokens list to be accessed"
        },
        "return": "uint256 token ID at the given index of the tokens list owned by the requested address"
      },
      "totalSupply()": {
        "details": "Gets the total amount of tokens stored by the contract.",
        "return": "uint256 representing the total amount of tokens"
      },
      "transferFrom(address,address,uint256)": {
        "details": "Transfers the ownership of a given token ID to another address. Usage of this method is discouraged, use `safeTransferFrom` whenever possible. Requires the msg.sender to be the owner, approved, or operator.",
        "params": {
          "from": "current owner of the token",
          "to": "address to receive the ownership of the given token ID",
          "tokenId": "uint256 ID of the token to be transferred"
        }
      }
    }
  },
  "userdoc": {
    "methods": {}
  }
}